:10060000EAEAEACACACA888888EAE8E8E8EA38F87A
:1006100078C8C8C818D858B8EAEAEAAAA88ABABAFC
:100620008AA80A0A0A0A0A0A0A0AAA18CA8A4A4A9E
:100630004A4A4A4A4A4A4A98182A2A2A2A2A2A2ADE
:100640002A2A2A2A2A2A2A2A6A6A6A6A6A6A6A6A0A
:100650006A6A6A6A6A6A6910691069806950691011
:100660006910692B6940694029FF297FC940C95039
:10067000C9EFAAE030E040E050E0A8E030E040E020
:1006800050E0EFA900A910A990A200A210A290A08A
:1006900000A010A020090009FF38A964E91018384B
:1006A000A50AE50838A50AE50A38A50AE50B38A920
:1006B000FDE502EAEAA900ADFEFFA503EAEAEAEADF
:1006C00018A9106503A97F2D0003A9102C00C0A94B
:1006D000CAC503E403CC03C0A9018D01C0A2028EE8
:1006E00002C0A0038C03C0A9FFA2FFA0FFAD01C000
:1006F000AE02C0AC03C0B80E01C0AD01C00E01C057
:10070000AD01C00E01C0AD01C00E01C0AD01C00EF3
:1007100001C0AD01C00E01C0AD01C00E01C0AD01F0
:10072000C00E01C0AD01C00E01C0AD01C0CE01C000
:10073000CE01C0CE01C0CE01C0CE01C0AD01C0EE21
:1007400001C0EE01C0EE01C0EE01C0EE01C0EE013D
:10075000C0AD01C04E01C0AD01C04E01C0AD01C071
:100760004E01C018AD01C0AD03C0EAA903EAA9114A
:100770006501A90F2501A90F2401A9EBC501A9FF56
:100780004501A601A403A9F0050138A9E96501C640
:1007900001A601E601A4014601A4012601A4016607
:1007A00001A401A9AC8505A405A2BC8605A505A0E8
:1007B000BF8405A505A9108D10C0A9128D12C0A96E
:1007C000FFA210BD00C0A9FFA212BD00C0A9108DDC
:1007D000F0C0A9208D00C1A9FFA210BDE0C0A9FFF3
:1007E000A220BDE0C0A9108D10C0A9128D12C018A2
:1007F000A930A2107D00C018A930A2127D00C0A9A6
:10080000108DF0C0A9208D00C118A930A2107DE084
:10081000C018A930A2207DE0C0A9108D10C0A91277
:100820008D12C0A90FA2103D00C0A90FA2123D0059
:10083000C0A9108DF0C0A9128D00C1A90FA2107D12
:10084000E0C0A90FA2203DE0C0A9108D10C0A920D2
:100850008D12C0A909A210DD00C0A910A210DD00F0
:10086000C0A911A210DD00C0A9108D00C1A909A264
:1008700020DDE0C0A910A220DDE0C0A911A220DD8A
:10088000E0C0A9108D10C0A9FFA2105D00C0A91082
:100890008D00C1A9FFA2205DE0C0A9108D10C0A2EB
:1008A00010BC00C0A9208D00C1A220A9108D10C0CD
:1008B000A9FFA2101D00C0A9108D00C1A9FFA22090
:1008C0001DE0C0A9508D10C038A955A210FD00C070
:1008D000A9558D00C138A965A220FDE0C0A950A28C
:1008E000109D00C0A000AC10C0A950A2209DE0C087
:1008F000A000AC00C118A901A2109D00C01E00C03C
:10090000BD00C01E00C0BD00C01E00C0BD00C0189C
:10091000A9AA8D00C0A901A2209DE0C01EE0C0BD13
:10092000E0C01EE0C0BDE0C01EE0C0BDE0C018A930
:1009300070A2109D00C0DE00C0BD00C0DE00C0BDC2
:1009400000C0DE00C0BD00C018A9AA8D00C0A970FB
:10095000A2209DE0C0DEE0C0BDE0C0DEE0C0BDE0A2
:10096000C0DEE0C0BDE0C018A970A2109D00C0FEAE
:1009700000C0BD00C0FE00C0BD00C0FE00C0BD0084
:10098000C018A9AA8D00C0A970A2209DE0C0FEE0F9
:10099000C0BDE0C0FEE0C0BDE0C0FEE0C0BDE0C044
:1009A00018A970A2109D00C03E00C0BD00C03E004E
:1009B000C0BD00C03E00C0BD00C018A9AA8D00C0C7
:1009C000A970A2209DE0C03EE0C0BDE0C03EE0C0F6
:1009D000BDE0C03EE0C0BDE0C018A970A2109D00FF
:1009E000C07E00C0BD00C07E00C0BD00C07E00C093
:1009F000BD00C018A9AA8D00C0A970A2209DE0C0AA
:100A00007EE0C0BDE0C07EE0C0BDE0C07EE0C0BD15
:100A1000E0C0A9108D10C0A9FFA010B900C0A92086
:100A20008D00C1A9FFA020B9E0C0A9108D10C01889
:100A3000A930A0107900C0A9208D00C118A930A04C
:100A40002079E0C0A9108D10C0A90FA0103900C0F6
:100A5000A9128D00C1A90FA02039E0C0A9108D10E6
:100A6000C0A909A010D900C0A910A010D900C0A920
:100A700011A010D900C0A9108D00C1A909A020D9CA
:100A8000E0C0A910A020D9E0C0A911A020D9E0C0E1
:100A9000A9108D10C0A9FFA0105900C0A9108D0089
:100AA000C1A9FFA02059E0C0A9108D10C0A010BEA0
:100AB00000C0A9208D00C1A020A9108D10C0A9FFE1
:100AC000A0101900C0A9108D00C1A9FFA02019E035
:100AD000C0A9508D10C038A955A010F900C0A95563
:100AE0008D00C138A965A020F9E0C0A950A01099D7
:100AF00000C0A200AE10C0A950A02099E0C0A20082
:100B0000AE00C1A000A200A910F004A033EAEAA23E
:0E0B100044EA4CFF204C0F104C00304CF031EA
:10100000CACACACACACACACACACACA4C180BEAA039
:0E10100000A200A900F0F1A033EAEAE8E8E847
:1020F000CACACACACACACACACACACA4C150BEAA03C
:1021000000A200A910F0F3A033EAEAE8E8E84C15D1
:012110000BC3
:10300000A000A200A910F00AA033EAEAE8E8E84C20
:093010001B0BCACACA4C1B0BEAD7
:1031F000A000A200A910F00AA033EAEAE8E8E84C2F
:093200001E0BCACACA4C1E0BEADF
:00000001FF
